:020000040800F2
:10000000E80C0020D50100087934000861300008B0
:1000100075340008ED0B000855570008000000007B
:10002000000000000000000000000000A5550008CE
:10003000D10C000800000000C5540008A9550008B4
:10004000EF010008EF010008EF010008EF010008D0
:10005000EF010008EF010008EF010008EF010008C0
:10006000EF010008EF010008EF010008EF010008B0
:10007000EF010008EF010008EF010008EF010008A0
:10008000EF010008EF010008EF010008EF01000890
:10009000EF010008EF010008EF010008EF01000880
:1000A000EF010008EF010008EF010008EF01000870
:1000B000B1550008EF010008EF010008EF0100084A
:1000C000EF010008EF010008EF010008EF01000850
:1000D000EF0100083D570008EF01000849570008EC
:1000E000EF010008EF010008EF01000800F002F83E
:1000F00000F060F814A696E8000CB244B344DA4568
:1001000001D100F057F8BAE80F000FA696E83000CA
:10011000A5EB040504EB0607AAEB0704A7F101070A
:100120004FEA15154FEA3414A4F10104AC4201D38F
:1001300000F040F813F0010F18BFFB1A43F0010361
:1001400000F001F8DBE71847047F0000247F00007F
:10015000103A24BF78C878C1FAD8520724BF30C8F3
:1001600030C144BF04680C60704700007047000055
:100170000023002400250026103A28BF78C1FBD8B0
:10018000520728BF30C148BF0B607047662907F08F
:10019000C481642900F04A80002070471FB500F038
:1001A0009BFB04000020002106F0E2FAE0601FBD86
:1001B00010B510BD00F0ACFC1146FFF7EFFF05F0E5
:1001C000FDFB00F0CAFC03B4FFF7F2FF03BC05F02F
:1001D0000DFB00000948804709480047FEE7FEE79D
:1001E000FEE7FEE7FEE7FEE7FEE7FEE7FEE7FEE7E7
:1001F00004480549054A064B70470000AD55000804
:10020000ED000008E8060020E80C0020E8080020C7
:10021000E80800200FB4044910B503AA029800F0C2
:1002200049FB10BC5DF814FB9C0500202DE9F04152
:100230000646002410687529314616A510D0AFF384
:100240000080002802DA404213A507E031688A07DF
:1002500001D512A502E0490704D511A5012401E04A
:10026000AFF3008000210A2206F1240709E0B0FB69
:10027000F2FCB0FBF2F302FB1C003030785418465D
:10028000491C0028F3D123462A463046BDE8F041F8
:1002900000F0A9B8000000002D0000002B000000B5
:1002A000200000002DE9F0474FF0000A894604467F
:1002B000C0F820A02046E1688847002876D025288D
:1002C00006D0D4E901219047206A401C2062F1E762
:1002D000E168204600258847C4F81CA00646002790
:1002E000C4F818A02A2E09D0304606F039FA38B3DF
:1002F00004EB8708303EC8F8186019E059F8041B71
:10030000204604EB87029161E1688847012F064689
:1003100018D1E069002820DA25F020051DE0D8F882
:10032000180000EB800006EB40003038C8F81800D9
:100330002046E1688847064606F012FA0028EED10A
:10034000012F0AD02E2E08D12046E16888477F1C55
:100350000646022F45F02005C4DBA069002803DA19
:10036000404245F00105A061E80701D025F01005E5
:10037000B6B1A6F14100192802D8203645F400652F
:100380004A463146204625604D46FFF7FFFE58B1EC
:10039000012806D0ED1D25F0070000F1080989E7C6
:1003A00004E005F1040985E730468AE7206ABDE8E4
:1003B000F087000010B5044603E005F0EBFA401C9E
:1003C00009D014F8010B05490028F6D1BDE810400A
:1003D0000A2005F0DFBA4FF0FF3010BD9C05002069
:1003E0007047704770472DE9F0470D469946924691
:1003F000044600F124080168880604D5E06921F06C
:100400001001216000E00120A84201DD471B00E04F
:100410000027A1697A1902EB0900081AA061207867
:10042000C00602D42046AFF30080002608E0D4E9DD
:1004300001211AF806009047206A401C761C2062B1
:100440004E45F4DB2078C0060AD52046AFF3008085
:1004500006E0D4E9012130209047206A401C206248
:10046000381EA7F10107F4DC07E0D4E9012118F8F0
:1004700005009047206A401C2062281EA5F1010556
:10048000F3DC2046AFF300802078000602D502207E
:10049000BDE8F0870120FBE72DE9FF4F0C461E4623
:1004A0004FF0FF378BB0D2E90001DDF860800A9091
:1004B0008A46C1F30A5505B93D46002108464FF06A
:1004C0000000BAF1000F00F4400005DA00EB8000F4
:1004D0004FF4400101EA50004FEA9059B9F1010F81
:1004E00000DDB9460A9850EA4A000ED044F6105092
:1004F000A5F2FF3545432F14B8F1000F1ED0754209
:10050000291E1EDDC9F100021CE0B8F1010F4FF0F9
:10051000000001D0302103E0F24305E02154401CEB
:10052000B042FBDB30460022002121540B99C1F878
:100530000880C1E900200FB0BDE8F08FBD1B6D1C25
:10054000DEE74A4600DA694206A800F067FA06AB21
:1005500093E8070003AB83E8070050460A9905F0CB
:1005600023FD8DE80700A0F500501F380090039888
:10057000002D0ADD42F21F014A460844002303A968
:100580000390684605F08CFF09E0A0F500504A464C
:100590001F38002303A90390684605F096FF8DE8F5
:1005A00007000004000C03D04FF0FF30410800E0CA
:1005B0001046B8F1000F03D00022009215461EE04D
:1005C000751E05D400F08CF9303262556D1EF9D5D8
:1005D000B3460122084302D000227F1C04E02078A9
:1005E000302801D100227F1E002A099784D01DE007
:1005F000112D07DA00F074F9303262556D1C50EAA3
:100600000102F5D1084302D00098C8B10EE00021E4
:10061000681E05E0235C625C63542254401E491C42
:100620008142F7DBAB46A81B401E0990002004F86E
:100630000B000B98099AC0F80880C0E9002B7AE7F4
:1006400011264FF0000857E72DE9F04F8846044681
:10065000D21D22F0070191B0D1E90001CDE90A01D4
:1006600006F06AF802460B98C00F01D02D2007E073
:100670002068810701D52B2002E0202101EAC0007B
:10068000032A099001D0072A05DB0346414620468C
:1006900000F084F90BE12078800601D5E06900E0E4
:1006A0000620B8F1650F814606D0B8F1660F18D064
:1006B000B8F1670F70D131E00020B9F1110F00904F
:1006C00001DB112301E009F101030AAA01A90CA829
:1006D000FFF7E2FEDDE90C70002609F10105834613
:1006E00047E001204B4600904FF000470AAA01A9BD
:1006F0000CA8FFF7D1FEDDE90DB00C995D46002690
:1007000010B909F101000D18B9EB050003D4C0F1CF
:10071000FF3609F10105A5EB09002BE0B9F1010F46
:1007200001DA4FF001090020B9F1110F009048469D
:1007300001DD112300E003460AAA01A90CA8FFF776
:10074000ABFEDDE90C704D4600268346207800079D
:100750000AD4AB4500DA5D4601A8012D04DD41193C
:1007600011F8011C302907D04F4502DA17F1040FA8
:1007700004DA012082460FE06D1EEEE7002F02DC56
:10078000ED1B3E4403E0781CA84200DD7D1CB81B35
:1007900000F1010A4FF000472078000703D4AA4572
:1007A00001DB4FF0FF3A0021B7F1004F0DF1430894
:1007B0008DF8431024D002202B23002F01DA7F4232
:1007C0002D230A21021EA0F1010000DC5FB197FB7E
:1007D000F1FC97FBF1F201FB1C7C17460CF1300C8D
:1007E00008F801CDEEE7A8F10100037021880905A2
:1007F00001D5452100E06521A0F1010800F8011CA8
:1008000009980FA9A1EB0807FF1D00B101204119AC
:1008100001EBEA70A1693844081A401EA0612078F3
:10082000C00602D42046AFF30080099828B1D4E96D
:1008300001219047206A401C20622078C00622D502
:100840002046AFF300801EE0002E04DBB34502DD3E
:1008500001A8805D00E03020D4E901219047206AA2
:10086000401C2062761CAAF101005FEA000A0AD14E
:1008700000F032F8C0680168405CD4E9012190477B
:10088000206A401C2062281EA5F10105DCDC07E07F
:10089000D4E9012118F8010B9047206A401C20621E
:1008A000381EA7F10107F3DC2046AFF300800320D8
:1008B00011B041E6074B70B50D467B4400F05BF884
:1008C0000446284600F01CF910B14FF0FF3070BD0F
:1008D000204670BDD75000000048704768000020D7
:1008E00030B5B0F10A0271F100034FEA900E4EEA02
:1008F000817EB0EB0E0061EB91014FEA101E4EEAD3
:10090000017E10EB0E0041EB11114FEA102E4EEA62
:10091000016E10EB0E0041EB11214FEA104E4EEA32
:10092000014E10EB0E0041EB1141401841F1000166
:100930004FEAD00040EA41704FEAD1014FEA81040A
:1009400044EA907410EB800544EB01046D1944EB0C
:100950000404521BA3414FF0000348BF0A3200D5E4
:1009600030BD401C41F1000130BD000001694A1C4E
:1009700002610878704700B58FB0CDE901310021E0
:10098000059105497944CDE9031011466846FFF702
:1009900089FC0FB000BD0000E5FFFFFF2DE9F0412D
:1009A0001F46044603260168072A01F4006004DBA1
:1009B00008B116A505E016A503E008B115A500E0ED
:1009C00015A521F010002060A069C01EA0610FB124
:1009D000401EA0612046AFF300804FB1D4E9012151
:1009E00038469047206A401C2062C01C206206E006
:1009F000206AFAE7D4E9012115F8010B9047761E29
:100A0000F8D22046AFF30080BDE8F0814E414E00A1
:100A10006E616E00494E4600696E66002DE9F04732
:100A2000814616468AB0354878440DC88DE80D00D9
:100A300032487844801C03AC0DC884E80D0041F6B0
:100A40009B300844372190FBF1F290FBF1F5A5F1C2
:100A5000800501FB12041B3C02D56442012000E02A
:100A60000020DFF898A080460027FA44AAF1BE0AC9
:100A70000EE0E0070AD03246684607EB4701012343
:100A80000AEB810105F021FD8DE8070064107F1C51
:100A9000002CEED1194F7F44AE3F19E0E80715D086
:100AA00007EB04100DF1180A90E80E008AE80E001A
:100AB000C068F04201D1981908903246012306A976
:100AC00003A805F002FD03AB83E807006D10641C6A
:100AD000002DE3D14FF0010332466946B8F1000F13
:100AE00003A802D005F0DCFC01E005F0EEFCC9E94A
:100AF0000001C9F808200AB0BDE8F087706B00005B
:100B0000007B00F0800070470048704748000020DC
:100B10007546FFF7F9FFAE4605006946534620F0DB
:100B20000700854618B020B5FFF762FBBDE82040FE
:100B30004FF000064FF000074FF000084FF0000B99
:100B4000AC46ACE8C009ACE8C009ACE8C009ACE808
:100B5000C00921F007018D46704710B50446AFF378
:100B600000802046BDE81040FFF72DBB4FF0013C50
:100B700050F8042B51F8043B9A4221D1A2EB0C030C
:100B8000934313EACC1317D150F8042B51F8043BCC
:100B90009A4215D1A2EB0C03934313EACC130BD169
:100BA00050F8042B51F8043B9A4209D1A2EB0C03F4
:100BB000934313EACC13DBD04FF00000704700BF23
:100BC000D01A01BAB1FA81F101F0180122FA01F04C
:100BD000CB40DBB2C0B2C01AC1F120012CFA01F344
:100BE000D11A914311EAC311E6D17047FEE7000024
:100BF000B0B540F26011C2F2000109684A1F062A2E
:100C000032D80146DFE802F004200A28363010000E
:100C100040F20404C2F200041AE000BF40F20404EF
:100C2000C2F200041CE000BF40F23C05C2F2000525
:100C3000286806F0BBF849F69A1249F69913C9F6E6
:100C40009912C3F6A97324E040F20004C2F2000432
:100C5000206806F0EDFB06E040F20004C2F200045A
:100C6000206806F0CFF8206040F23C00C2F200009D
:100C7000046814E040F23C05C2F20005286806F062
:100C800095F849F69A1249F69913C9F69912CBF6D6
:100C9000A97305F0B5FD05F081FD04462860002527
:100CA000C4F240052046294606F02AF948B9002535
:100CB000C4F2F0152046294606F029F9002818BF8D
:100CC000B0BD40F23C00C2F200000560B0BD0000C3
:100CD0007047000072B600BFFEE7000010B584B098
:100CE00040F2F45401200721C2F200040190CDE942
:100CF000020101A9204600F037F8204600F0BEFAB4
:100D000020461E2100F0CCF9204600F0E9F88005CD
:100D100002D4002004B010BD40F2F450C2F2000032
:100D200000F0E0F880B205F042FE46F26663C4F2DD
:100D30000A034FF0663205F04DFE0023C4F226038D
:100D4000002205F047FE0023C4F25903002205F0FB
:100D500041FE0023C3F63073002205F03BFE05F090
:100D6000F7FD04B010BD000010B581B00022009264
:100D700090F82420012A03D10221084601B010BDB9
:100D80004B680122062B80F8242033D8D0F800C00D
:100D900003EB83035A1F1F23DCF834E003FA02F449
:100DA0000B682EEA040403FA02F22243CCF8342042
:100DB000092B03EB430249D9DCF80CE01E3A072467
:100DC000896894402EEA0404914023F001022143F3
:100DD000102ACCF80C1043D142F20841C4F20101B0
:100DE000A1F10802944543D0816A41F0200181625B
:100DF000012136E0D0F800C00C2B03EB830213D89E
:100E0000233A1F23DCF830E003FA02F40B682EEAE1
:100E1000040403FA02F22243CCF83020092B03EB3E
:100E20004302C9D812E000BF413A1F23DCF82CE08E
:100E300003FA02F40B682EEA040403FA02F22243D6
:100E4000CCF82C20092B03EB4302B5D8DCF810308A
:100E5000072489689440A34391401943CCF81010AB
:100E60000021002280F82420084601B010BD00BFF8
:100E70000A681202F4D40A68102B42F400020A60D5
:100E8000EED140F24001C2F2000109684DF68362E2
:100E9000C4F21B32A1FB0212910C01EB810149004B
:100EA000009100990029DBD0009901390091009947
:100EB0000029D5D000990139009100990029CFD09F
:100EC00000990139009100990029C9D00099013990
:100ED0000091009900294FF00001E5D1C1E7000021
:100EE000806A70470068C06C70470000002804BF2B
:100EF00001207047B0B50446806A28B12068816837
:100F0000C9070CD034E000BF0020E06284F8240060
:100F1000204600F091F820688168C90728D1A16AAD
:100F2000C9063FD4A16A41F2021291430231A16283
:100F3000E169D4E90132E56841EA030E531ED4F8B1
:100F400014C0B3FA83F35909B2F5807F134618BF72
:100F50000B02BCF1010F4EEA45012ED145B3A56A43
:100F600045F02005A562E56A45F00105E56224E04B
:100F7000816821F00101816000F08CFB054600BF13
:100F800020688168C907CAD000F084FB401B032891
:100F9000F6D3A06A40F01000A062E06A40F00100C1
:100FA000E062A06AA06A40F01000A0620120B0BD1B
:100FB000A56903EB4533A3F5C0534568B2F5807FBF
:100FC00025F4694543EA0503436083684FF2FD75E4
:100FD000CFF6E17503EA050343EA0103836001D01C
:100FE000012A07D122690023CFF6F07303EB0252E6
:100FF00001E000BF0022C36A23F470031A43C262F7
:10100000806840F6FE62CFF61F721040884207D11A
:101010000020E062A16A012262F30101A162B0BD79
:10102000A06A40F0100020F00200A062E06A40F0E8
:101030000100E0620120B0BD80B586B0014640F6F7
:101040000000C4F20100096800F5E05291424FF03F
:101050000001CDE90411CDE9021101D006B080BD37
:1010600041F21801C4F202010A6842F400720A60F7
:101070000A6802F400720192019A0A6842F00402BE
:101080000A60096801F004010191019902210291AD
:101090000321039102A900F0F1F906B080BD000020
:1010A0002DE9F04182B000270D460446019700F07B
:1010B000F1FA21688A68D20544D406464868C0051A
:1010C00003D4C86A10F4700F46D040F24000C2F258
:1010D0000000076842F292480220C1F2492800F05D
:1010E00091FB216844F624130A69B7FBF0F0C2F2C1
:1010F00092431A4206D1CA6844F62413C0F29203FE
:101100001A4249D00A6912EA080F07D1CA6842F2A6
:101110009243C0F249031A4200F084800A6949F2FE
:101120004923C0F224031A424FF0FC0242D1CF6897
:101130001F4208BF5422019B02FB00F7BB423ED373
:1011400079E000BFA06A40F02000A06284F824701B
:10115000012002B0BDE8F081086880076BD4002D43
:1011600055D0681C12D10868800764D408688007CD
:101170005CBF08685FEA80705DD408688007F2D5BC
:1011800059E000BF21680868800754D400F082FA53
:10119000801BA842F6D93AE00A6912EA080F4FF01C
:1011A000290207D1CB6842F29247C0F249073B427D
:1011B00008BF1422019B02FB00F7BB423BD235B3B0
:1011C000681C1FD10198013001900198B84232D2B9
:1011D0000198013001900198B8422CD20198013059
:1011E00001900198B84226D20198013001900198EF
:1011F000B842E7D31FE000BF019801300190019889
:10120000B84217D200F046FA801BA842F4D9A06A6F
:1012100040F00400A062002084F82400032002B003
:10122000BDE8F0815422019B02FB00F7BB42C6D30C
:1012300001E000BF21686FF012000860A06A40F46E
:101240000070A062886800F46020B0F5602F01D1C2
:10125000E06818B1002002B0BDE8F081A06A20F477
:101260008070A062A06AC004F4D4A06A40F00100BB
:10127000A062002002B0BDE8F0810000B0B582B0ED
:10128000044690F82400012802D1022002B0B0BD2B
:10129000012084F824000020019020688168C9079B
:1012A00042D1816841F00101816040F24000C2F208
:1012B000000000684DF68361C4F21B31A0FB010100
:1012C000880C01900198A0B1019801380190019813
:1012D00078B1019801380190019850B10198013816
:1012E0000190019828B101980138019001980028D7
:1012F000EAD100F0CFF9054620688168C90713D10B
:1013000000F0C8F9401B0228F6D9A06A40F010008E
:10131000A062E06A40F00100E062002084F824004E
:10132000012002B0B0BD00BFA26A42F2044140F207
:101330000133C4F201019A4302F5807301F57F7213
:101340009042A3622AD0A36A23F48013A362436865
:101350005B0504D5A36A012565F30D33A362A56A75
:101360000023ED044FF0000544BFE56A25F00605B3
:10137000E56284F824306FF002030360836803F4AD
:101380006023B3F5602F19D1904213D0816841F4E6
:10139000A0018160002002B0B0BD00BF0B6813F453
:1013A000702FD0D0A36A43F48013A3620B685B054F
:1013B000D0D4D4E7096811F4702FE7D0816841F4E4
:1013C00080118160002002B0B0BD000090F82110B3
:1013D000022923D1026840F2040C1168C4F2020C05
:1013E00021F00E01116013682F21C4F202018A421C
:1013F00023F00103136015DD3023C4F202039A4287
:101400001CD04423C4F202039A421BD05823C4F2D6
:1014100002039A421CD14FF4803321E004218163FE
:10142000012070470823C4F202039A420ED01C2305
:10143000C4F202039A420BD1102311E04FF48073DF
:101440000EE000BF4FF480530AE000BF012307E025
:101450000CF168014FF080738A4208BF4FF480138B
:10146000CCF80030416B4FF480720029028404BF35
:101470000020704780B58847002080BD2DE9F04FDF
:1014800082B040F20C4C40F2004E41F20042C4F2F5
:10149000010CC4F2010EC4F201020427002401234E
:1014A0004FF0000A4FF00009904208BF0327009751
:1014B00048E000BF41F20002C4F20102009F9042E6
:1014C00008BF022704F00C030F229A402BEA020205
:1014D00007FA03F34FEA9A051A4346F825204E68A7
:1014E000F203DEF8002054BF22EA080242EA0802B2
:1014F000CEF80020DEF80420B30354BF22EA08022D
:1015000042EA0802CEF80420F302DEF8082054BFB5
:1015100022EA080242EA0802B302CEF80820DCF808
:1015200000204FF0010354BF22EA080242EA0802F9
:10153000CCF800200AF1010ABAF1100F04F10404FA
:1015400000F09E800A6803FA0AFB12EA0B08F1D049
:101550004E684FF6FF72C1F21002964212DC122E54
:1015600056D8DFE806F0350B4D49555555555555BC
:101570005555555555555545510000BFD1F80C905E
:1015800046E000BF4FF6FF72C1F2210296420FDC27
:101590000022C1F2110296421AD00022C1F21202B8
:1015A000964215D00022C1F22102964210D02FE0BF
:1015B0000022C1F2220296420AD00022C1F2310278
:1015C000964205D00022C1F23202964220D100BFDD
:1015D0008A684AB1012A14BFC0F814B0C0F810B02C
:1015E0004FF0080914E000BF4FF0040910E000BFFD
:1015F000CA6802F104090BE04FF0000908E000BFDF
:10160000CA6802F1080903E0CA6802F10C0900BFC8
:1016100002462646B8F5807F24BF0432203E176874
:101620000F25B54027EA050509FA06F6354315608A
:10163000CA79D2067FF57EAF41F21803C4F20203E5
:101640001A68AEF57E7642F001021A601A6802F05E
:1016500001020192019A2AF0030256F802B040F604
:101660000002C4F20102904208D040F60042C4F2E7
:10167000010290427FF41EAF012723E7002721E7F4
:1016800002B0BDE8F08F0000002A08BF0904016124
:101690007047000040F2E460C2F20000006870474A
:1016A00040F2E460C2F2000001680131016070475D
:1016B00080B542F20000C4F20200016841F010015E
:1016C0000160032000F082F8032000F005F800F02C
:1016D0001BF8002080BD000010B540F24001C2F2AE
:1016E0000001096844F6D352C1F26202A1FB021262
:1016F0000446900900F04AFC4FF0FF3021460022DA
:1017000000F038F8002010BD80B582B041F218001A
:10171000C4F20200016841F001010160016801F0BA
:10172000010101910199416841F080514160406897
:1017300000F0805000900098052000F047F8042049
:10174000C4F20100016821F0E0610160016841F02C
:101750000071016002B080BD00F01F01012202FA99
:1017600001F14EF200124009CEF2000242F82010C0
:101770007047000010B54EF60C5CCEF2000CDCF8A1
:101780000030C3F3022E8EF00704042C28BF04247B
:10179000BEF103034FF0FF3E0EFA04F438BF0023FE
:1017A000A14399400EFA03F39A43114300F16042BA
:1017B00000F00F03090102F56442043B6344002872
:1017C00048BF03F10C02117010BD00004EF60C5121
:1017D000CEF200010A684FF6FF031A4060F30A22B6
:1017E00042F0806040F0FD70086070472020C4F235
:1017F0000E200021016070472020C4F20E2001213C
:1018000001607047012821D002280DD0102808D18E
:1018100041F20401C4F202010A6851F8040CC0014B
:1018200032D40020704700BF80B500F0CDF941F2FE
:101830000401C4F2020109680222C1F3813102EB02
:101840004101B0FBF1F0BDE88040704741F2040077
:10185000C4F20200C16940F202320A40B2F5817F4F
:1018600004BF4FF40040704701F44071B1F5407F70
:1018700016D0B1F5007F1AD1006A800744BF49F63F
:101880004040704713E000BFC2F3834016A3185CCA
:10189000D2030FD440F60012C0F23D02504315E0CF
:1018A00050F8040C800344BF4FF2244070470020DE
:1018B000704700BF0A6810A3C2F340429A5C41F22D
:1018C0000023C0F27A03B3FBF2F2504309684902E5
:1018D00048BF70474AF6AB214000CAF6AA21A0FBD8
:1018E00001014808704700BF020304050607080904
:1018F0000A0B0C0D0E0F1010010200002DE9F04133
:1019000082B00446007841F21C06C007C4F2020609
:101910004AD030685FEAC00808D4306840F0805090
:101920003060306800F080500190019847F2000765
:10193000C4F200073868C00512D4386840F48070DB
:101940003860FFF7A7FE05463868C00508D4FFF7E2
:10195000A1FE401B6428F7D9032002B0BDE8F08146
:10196000706810F4407012D0616801F440718842D0
:101970000DD0706840F24042C4F24222012320F4AC
:10198000407113600023C0071360716026D1706836
:10199000616820F440700843B8F1000F706003D410
:1019A000306820F0805030602068810707D556F8F5
:1019B000181CA26821F44041114346F8181CC006C7
:1019C00007D556F8180CE16820F48000084346F863
:1019D000180C002002B0BDE8F08100BFFFF75AFEEE
:1019E000054641F2883700BF70688007CFD4FFF703
:1019F00051FE401BB8424FF00300F5D9EAE7000062
:101A00002DE9F04381B042F20008C4F20208D8F890
:101A100000200D4602F00701A94204460CD2D8F876
:101A2000000020F007002843C8F80000D8F80000A4
:101A300000F00700A84254D1206841F20407810752
:101A4000C4F2020705D53968A26821F0F0011143FC
:101A50003960C0073CD1D8F8000000F00700A84268
:101A60000CD9D8F8000020F007002843C8F800007F
:101A7000D8F8000000F00700A84232D120684107E2
:101A800005D53968E26821F4E06111433960000747
:101A900006D53868216920F4605040EAC1003860FA
:101AA0003A6802F00C00082841F20020C0F27A00E7
:101AB00061D147F2CE53C2F38341C0F60003595CB3
:101AC000D2034DD440F60010C0F23D00484352E02E
:101AD000606857F8041C022808D001283CD189030B
:101AE00006D4012001B0BDE8F08300BF8901F8D51C
:101AF000396821F0030108433860FFF7CBFD6168C6
:101B00000646012941F2883915D002291FD100BFAC
:101B1000386800F00C0008289DD0FFF7BBFD801B43
:101B20004845F5D9032001B0BDE8F083FFF7B2FDC9
:101B3000801B4845F6D8386800F00C000428F5D121
:101B400089E700BFFFF7A6FD801B4845EAD8386843
:101B500010F00C0FF6D17EE78907C2D5C8E700BFA9
:101B60003A6847F2B453C2F34042C0F600039A5CAD
:101B7000B0FBF2F04843396847F2B652C1F30311A3
:101B8000C0F60002515CC84040F24001C2F20001C0
:101B900008600320FFF7A0FD002001B0BDE8F0833E
:101BA00040F2400041F20401C2F20000C4F202011E
:101BB0000068096847F2C652C1F30221C0F600026C
:101BC000515CC8407047000040F2400041F20401FF
:101BD000C2F20000C4F202010068096847F2C6526E
:101BE000C1F3C221C0F60002515CC840704700003A
:101BF0002DE9F04182B00446007841F20006C007AA
:101C0000C4F2020609D0706800F00C00042873D1F9
:101C10003068800301D5606858B32078800718D5F4
:101C2000706810F00C0F07D0706800F00C000828E6
:101C30007CD17068C00379D43068800702D52069F0
:101C4000012816D13068616920F0F80040EAC1002F
:101C500030602078000711D42078400726D4E56949
:101C6000002D00F08F81706800F00C00082840F013
:101C70009380012002B0BDE8F08100BFA069002878
:101C800040F20000C4F2422076D00121C0F8801456
:101C9000FFF700FD054600BF706A800700F19E80D7
:101CA000FFF7F8FC401B0228F6D942E1F0695FEA31
:101CB000C00808D4F06940F08050F061F06900F08D
:101CC00080500090009847F20007C4F2000738687F
:101CD000C00543D4386840F480703860FFF7DAFC00
:101CE000054600BF3868C00538D4FFF7D3FC401B59
:101CF0006428F7D91DE100BF706800F00C000828C7
:101D000003D17068C0033FF583AF61683068002974
:101D100000F0E680B1F5A02F00F0DA80B1F5803F49
:101D200040F0F48040F48030F6E000BF20690028E5
:101D300040F20000C4F2422000F07A8001210160EC
:101D4000FFF7A8FC054600BF306880073FF57AAF73
:101D5000FFF7A0FC401B0228F6D9EAE0E168306AF0
:101D6000002900F07D80052972D0012940F0908083
:101D700040F0010092E000BF0021C0F88014FFF79E
:101D800089FC0546706A80077FF566AFFFF782FC25
:101D9000401B0228F6D9CCE00027C4F242270020DD
:101DA0003866FFF777FC022D05460BD130688001BD
:101DB00040F1C480FFF76EFC401B02284FF0030087
:101DC000F4D9DBE03068800140F1DC80FFF762FC91
:101DD000401B03284FF00300F4D3CFE040F2400053
:101DE000C2F20000006844F6D351C1F26201A0FBC8
:101DF0000101480A019000BF00BF0198411E002860
:101E000001913FF429AF00BF0198411E00280191C4
:101E10003FF422AF00BF0198411E002801913FF41A
:101E20001BAF00BF0198411E00280191E4D113E7C8
:101E300000210160FFF72EFC054600BF30688007D7
:101E40007FF507AFFFF726FC401B0228F6D970E0AC
:101E500040F004003062306A40F001001EE000BF34
:101E600020F001003062306A20F004003062FFF799
:101E700011FC054641F28837306A80071ED5FFF70E
:101E800009FC401BB8424FF00300F5D976E000BFD3
:101E900020F001003062306A20F004003062FFF769
:101EA000F9FB054641F28837306A800706D4FFF710
:101EB000F1FB401BB842F7D93BE000BFB8F1000F7F
:101EC0003FF5CDAEF06920F08050F061C7E600BF6D
:101ED00040F480203060306840F480301CE000BF67
:101EE00020F480303060306820F480203060FFF7CC
:101EF000D1FB0546306880037FF58FAEFFF7CAFB44
:101F0000401B64284FF00300F4D937E020F4803000
:101F10003060306820F480203060FFF7BBFB05465E
:101F2000306880033FF579AEFFF7B4FB401B6428AF
:101F3000F6D9032002B0BDE8F08100BF206AB0F5F9
:101F4000803F05D17168A26821F4003111437160AE
:101F50007168626A21F474111143084370600120B2
:101F60003866FFF797FB0446306880010AD4FFF714
:101F700091FB001B02284FF00300F5D902B0BDE829
:101F8000F08100BF002002B0BDE8F081411E0020BA
:101F9000B0EB116F1CBF012070474EF21002CEF261
:101FA000000251604EF62351CEF20001F0230B7077
:101FB0000721906011607047704700007047000073
:101FC00090F83C20012A4FF0020219D080F83D2001
:101FD0000268536823F070035360536891E802105D
:101FE00019435160916821F080019160916841EA44
:101FF0000C0191600121002280F83D1080F83C2006
:1020000010467047002804BF0120704710B590F8B3
:102010003D1031B9002180F83C10044600F056F81C
:102020002046022180F83D10016840F2FF740B68E1
:10203000C4F2000442F6004CA142C4F2010C15DCCB
:10204000B1F1804F1AD040F20042C4F20002914236
:1020500014D0A14218DCB1F1804F1DD040F20042F3
:10206000C4F20002914217D01AE000BF614505D0CA
:1020700040F60002C4F200029142EAD1826823F0E5
:1020800070031343A142E6DD614505D040F600022E
:10209000C4F20002914203D1026923F44073134356
:1020A000846923F08002D0F804E0C36822436145CC
:1020B0000A60CB62C1F828E002D14269CCF8302036
:1020C00001224A6180F83D20002010BD80B582B019
:1020D000006840F60001C4F2000188421AD0B0F155
:1020E000804F24D141F21C00C4F202000168012299
:1020F00041F0010101600068002100F00100019041
:1021000001981C20FFF736FB1C2002B0BDE8804080
:10211000FFF722BB41F21C00C4F20200016841F04B
:1021200004010160006800F004000090009802B013
:1021300080BD00000168C86840F00100C860086800
:1021400040F0010200200A607047000090F83C2037
:10215000012A4FF0020200F0E78080B580F83D20B0
:10216000D0F800C04FF67772DCF8083023EA02029C
:10217000CCF808200B684F2B2ADC1F2B3ADD202BD4
:1021800000F09280302B00F0AB80402B40F0C480F8
:10219000D1F804E0C968DCF82030DCF8202022F017
:1021A0000102CCF82020DCF8182022F0F00242EAEC
:1021B000011123F00A0242EA0E02CCF81810CCF802
:1021C0002020DCF8081041F0470121F03001A1E0A7
:1021D0006F2B1BDD702B6FD0B3F5005F00F0888094
:1021E000B3F5805F40F09880DCF8081021F007011B
:1021F00090E000BF83B3102B40F08E80DCF8081015
:1022000041F0170121F0600184E000BF502B2BD07A
:10221000602B40F08180D1F804E0C968DCF8203000
:1022200023F01003CCF82030DCF81830DCF8202044
:1022300023F4704322F0A00243EA013142EA0E1275
:10224000CCF81810CCF82020DCF8081041F0670119
:1022500021F010015EE000BFDCF8081041F007013A
:1022600021F0700156E000BFD1F804E0C968DCF845
:102270002030DCF8202022F00102CCF82020DCF80D
:10228000182022F0F00242EA011123F00A0242EA89
:102290000E02CCF81810CCF82020DCF8081041F021
:1022A000570121F0200135E0DCF8081041F027014A
:1022B00021F050012EE000BFD1E901E3C968DCF84C
:1022C000082043EA0E0322F47F4243EA012111432E
:1022D000CCF80810DCF8081041F077011AE000BFD4
:1022E000DCF8081041F0370121F0400112E000BF96
:1022F000D1E901E3C968DCF8082043EA0E0322F4BF
:102300007F4243EA01211143CCF80810DCF80810A1
:1023100041F48041CCF808100121002280F83D10E2
:1023200080F83C20BDE880401046704770470000B0
:1023300010B5016804460869800744BFC8685FEAB1
:10234000807039D40869400744BFC8685FEA4070AC
:102350003ED40869000744BFC8685FEA007045D4EE
:102360000869C00644BFC8685FEAC0604AD408690B
:10237000C0071CBFC8685FEAC07051D10869000679
:1023800044BFC8685FEA006052D40869400644BF91
:10239000C8685FEA406053D40869800646BFC868D1
:1023A0005FEA806010BD6FF0200220460A61BDE840
:1023B0001040FFF703BE00BF6FF00200086101206C
:1023C00020778869800743D02046FFF7AFFF45E0BC
:1023D0006FF00400086102202077886910F4407FC4
:1023E00040D02046FFF7A2FF42E000BF6FF0080098
:1023F000086104202077C86980073DD02046FFF798
:1024000095FF3FE06FF01000086108202077C86951
:1024100010F4407F3AD02046FFF788FF3CE000BF31
:102420006FF001000861204600F0C2F92168A5E7BD
:102430006FF0800008612046FFF7BEFD2168A4E729
:102440006FF040000861204600F012FB2168A3E70E
:10245000204600F025F8204600F08AF92168002087
:1024600020776FE7204600F01BF8204600F080F947
:102470002168002020776CE7204600F011F8204604
:1024800000F076F921680020207769E7204600F007
:1024900007F8204600F06CF921680020207766E7F5
:1024A0007047000090F83C30012B4FF0020300F021
:1024B000F6804FEAB202032A80F83D3000F2E9804C
:1024C0002DE9F043DFE802F002A43A74036842F613
:1024D00000461A6AC4F2010622F001021A621D6A5D
:1024E0001A465C6852F818CFB3428E68D1F800E003
:1024F00025F0020545EA06050CD1CE68D1E905783C
:1025000024F4407425F00C0526F004063C433543C2
:1025100044EA08042CF0730747EA0E075C609F61E9
:102520004F6809695F631D629F6947F008079F61F3
:102530009F6927F004079F61A6E000BF036842F689
:1025400000461A6AC4F2010622F480721A621D6AF9
:102550001A46D3F804C052F81CEFB3428E680C68D8
:1025600025F4007545EA06250FD1CE68D1E9059816
:10257000360240F2FF4725F44065BE4335432CF454
:10258000405748EA090647EA061C2EF0730727431E
:10259000C3F804C0DF614F680969DF631D62DF694A
:1025A00047F00807DF61DF6927F00407DF616BE0B0
:1025B000036842F600471A6AC4F2010722F4805207
:1025C0001A621A46D3F820C05D6852F81C4FD1F841
:1025D00000E08E68BB4204D14F6925F4804545EA8E
:1025E00087152CF4005747EA063724F4E64646EAF6
:1025F0000E265D60DE614E6809691E641F62DF6938
:1026000047F40067DF61DF6927F48067DF613AE044
:10261000036842F600461A6AC4F2010622F010026C
:102620001A621D6A1A46D3F804C052F8184FB34212
:102630008E68D1F800E025F0200545EA06150FD197
:10264000CE68D1E905986FF0400725F0C00507EA8C
:10265000061635432CF4406748EA090647EA860C1B
:1026600024F4E64444EA0E27C3F804C09F614F688F
:1026700009699F631D629F6947F400679F619F69B5
:1026800027F480679F610902136819431160BDE850
:10269000F0430121002380F83D1080F83C301846BB
:1026A00070470000002804BF0120704710B590F863
:1026B0003D1031B9002180F83C10044600F056F876
:1026C0002046022180F83D10016840F2FF740B683B
:1026D000C4F2000442F6004CA142C4F2010C15DC25
:1026E000B1F1804F1AD040F20042C4F20002914290
:1026F00014D0A14218DCB1F1804F1DD040F200424D
:10270000C4F20002914217D01AE000BF614505D023
:1027100040F60002C4F200029142EAD1826823F03E
:1027200070031343A142E6DD614505D040F6000287
:10273000C4F20002914203D1026923F440731343AF
:10274000846923F08002D0F804E0C3682243614525
:102750000A60CB62C1F828E002D14269CCF830208F
:1027600001224A6180F83D20002010BD7047000022
:102770007047000002680120136A00FA01F123EAA1
:1027800001001062136A42F64440C4F2010019438A
:10279000A0F144039A42116203D1016841F400415F
:1027A0000160106840F001010020116070470000D6
:1027B00040F22461C2F20001884218BF70472DE93F
:1027C000F04F81B040F27414C2F20004206840F26D
:1027D0006C11C2F200010860322003F009F80128F0
:1027E0000DD1206845F256510130C5F2555180FB9C
:1027F000011202EBD27101EB4101401A206040F25C
:10280000F150C2F20000017801290CD140F2F051E0
:10281000C2F200010A780132D3B2052B0A7002BF5E
:1028200000220A70027040F26410C2F200000068D8
:10283000B0F57A7FC0F21681206840F23C0A022887
:10284000C2F2000A12D001280CD00028DAF80000E9
:1028500040F20001C4F2400104F06CFBFEF7C8F93D
:1028600006E000BF02F078FF02E000BF02F0C8FA05
:1028700040F20005C2F200052E680024C4F27A344A
:102880003046214604F043FB40B944F20004C4F250
:102890009C443046214604F033FB08B926462C60A0
:1028A00040F20407C2F200073C680025C4F29635E6
:1028B0002046294604F02BFB10B13D600AE000BF22
:1028C0000025C4F296452046294604F019FB00284D
:1028D00008BF3D6040F22014C2F20004A07840F22C
:1028E0008C58002840F22C0040F2300540F2905BFA
:1028F000C2F20000C2F20008C2F20005C2F2000BF0
:102900004AD0D9460020A070DAF80040204604F0F2
:1029100007FC824684F0004004F002FCD8F8006016
:1029200004F03AFC07463046394604F0F0FA044613
:1029300000283546504618BF3D4604F02DFC002CBB
:10294000044604D12846214604F0DAFA48B928465C
:10295000214604F0C7FA002818BF25462E46C8F8BD
:102960000050D9F800503946284604F0D0FA002823
:1029700008BF2F4604D13846214604F0C1FA08BBEF
:102980003846214604F0AEFA002818BF2746C9F899
:1029900000703D4616E000BF00683146002202F09C
:1029A00093FD2A683968C8F800001046012202F039
:1029B0008BFDA178D9460029CBF80000A4D0D8F827
:1029C0000060054640F22C09C2F20009D9F8001057
:1029D000304604F017FA40F23008C2F20008D8F886
:1029E00000100646284604F00DFA44F200010446A1
:1029F000C4F29C41304604F075FA0025C4F27A35E1
:102A000000281CBF44F20006C4F29C46304629460A
:102A100004F068FA00210028C4F29641204608BF5D
:102A20002E46C9F8006004F05DFA0025C4F2963520
:102A300000281CBF0024C4F296442046294604F016
:102A400051FA0028304608BF2C46C8F8004004F070
:102A500083FB40F63C05C4F200052860204604F0E4
:102A60007BFB6860642001B0BDE8F04F00F012BB52
:102A70007047000081B040F2A801C2F20001024696
:102A800001F11C00824227D040F2A460C2F2000093
:102A9000824224D1C26B120721D04FF0000CCDF836
:102AA00000C0036801311A6800925A680092009AC7
:102AB000CDF800C01A6800925A680092009ACDF8CA
:102AC00000C01A6800925A680092009ACDF800C0BF
:102AD0001A6800925A680DE0886D000702D401B0B0
:102AE000704700BF00200090084650F81C2F136864
:102AF000009352680092009A012201B000F0D8B908
:102B0000B0B501680A68CC684B6902F02F05202D2A
:102B100004F0200512D18DB190F83A20222A40F01D
:102B200017818268B2F5805F3ED10369826A496885
:102B3000002B61D0C9B222F8011B61E05FEA027C80
:102B40001EBF03F0010E04F4907313EB0E0337D194
:102B5000130617D514F0800314D090F83920212AD9
:102B600040F0F6808368026AB3F5805F30D1138845
:102B70006FF35F234B600369002B14BF01320232F5
:102B8000026229E0520640F1E38014F0400208BFDF
:102B9000B0BDCA6822F04002CA60202180F8391016
:102BA000BDE8B04000F05ABA02694968002A826A5A
:102BB00018BF01F07F01531C8362117021E000BF38
:102BC000D30718BF14F4807336D153073AD440E0CA
:102BD000531C036212784A60C28C013A1304C28407
:102BE00040F0B680C86820F08000C860C86840F037
:102BF0004000C860B0BD00BF6FF35F2122F8021B28
:102C00008262C18D01390A04C18540F0A18001684A
:102C1000CA6822F02002CA60CA6822F48072CA60C0
:102C20004A6922F001024A61202180F83A10BDE889
:102C3000B04000F067B900BFC36B43F00103C3634A
:102C4000530706D5BEF1000F03D0C36B43F0020358
:102C5000C363930706D5BEF1000F03D0C36B43F0E7
:102C60000403C363BCF1000F06D5BEF1000F03D00F
:102C7000C36B43F00803C363C36B002B68D0920699
:102C80003BD5D5B390F83A20222A36D18268B2F5E6
:102C9000805F07D10369826A49687BB1C9B222F8B3
:102CA000011B0FE002694968002A826A18BF01F01F
:102CB0007F01531C8362117005E000BF6FF35F2139
:102CC00022F8021B8262C18D4A1EC285016812046D
:102CD00013D1CA68044622F02002CA60CA6822F4EE
:102CE0008072CA604A6922F001024A61202180F89C
:102CF0003A1000F007F9216820464A69C36B02F0D8
:102D0000400203F00803D21824D0CA6822F490725B
:102D1000CA604A6922F001024A61202280F83A2002
:102D20004A6952061CD54A6922F040024A61416B49
:102D3000B1B145F2BD52C0F60002044608464A63EE
:102D4000FEF744FB20B1606B416BBDE8B040084723
:102D5000B0BD00BF0446FFF78DFE0020E063B0BDAC
:102D6000BDE8B040FFF786BE002804BF01207047D1
:102D700010B5044690F8390028B9002084F83800CE
:102D8000204600F021F8242084F839002068C1682A
:102D900021F40051C160204602F016FC2068016950
:102DA00021F490410161416921F02A014161C1682A
:102DB00041F40051C16000202021E06384F8391003
:102DC00084F83A1010BD0000F0B585B0006844F6F4
:102DD0000001C4F2000188424FF00001CDE9031167
:102DE000CDE9011126D043F60001C4F20101884269
:102DF0005BD141F21800C4F20200016840F6000500
:102E000041F4804101600168252401F48041009172
:102E1000009901684FF4806741F004010160006887
:102E2000C4F2010500F00400009000984FF4007017
:102E3000019021E041F21800C4F202004168272409
:102E400041F48021416041684FF4006701F4802122
:102E500000910099016841F008010160006800F0EC
:102E60000800009000984FF48060019040F6000048
:102E7000C4F2010000F5806502200290032001AE3B
:102E8000049028463146FEF7F9FA0020CDE9020009
:102E9000284631460197FEF7F1FA2046012101222A
:102EA000FEF768FC2046FEF757FC05B0F0BD0000B9
:102EB000034690F83A0020280AD100294FF001007B
:102EC00018BF002A00D1704793F83800012801D1BB
:102ED000022070479962002022219A85DA85D86302
:102EE00083F83A10196883F83800CA6842F480728F
:102EF000CA604A6942F001024A61CA6842F020028F
:102F0000CA6070472DE9F043024640F2A460C2F265
:102F10000000824218D040F2A801C2F2000101F183
:102F20001C00824218BFBDE8F0838A7C0B78012A1E
:102F300020D02ABB0A7CFE2A22D14A7CFF2A1FD13C
:102F400001228A74CB741AE040F2A803C2F2000393
:102F5000D87A93F801C001281AD0D8BB587AFE2835
:102F600038D1987AFF2835D10120D87283F80CC067
:102F70002FE000BFCA7B082A3AD300228A74CA73A2
:102F80000A7C0B744A740122BDE8F043FFF790BF3E
:102F9000187A03281BD2411C1A4602F8081F104455
:102FA000032980F804C015D140F25410197B5A7BD4
:102FB0009F7BC2F2000001704270877040F278502F
:102FC000C2F2000001210160586801305860002001
:102FD000D8721872587A591C987240F2A460C2F2E2
:102FE0000000012283F809C0BDE8F043FFF760BF8D
:102FF000571C0E4606F80F7F3244082F1371BFD1BD
:1030000091F8138091F814C091F815E091F816909A
:103010008CEA080282EA0E02CD7D82EA09020E7E67
:103020006A404F7E72408C7E7A40A242A5D140F227
:103030007C54C2F2000484F8008084F801C084F853
:1030400002E084F8039025716671A771E27140F285
:103050008452C2F20002012717608EE77047000019
:10306000FEE7000080B5FEF7C7FB41F22000C4F286
:103070000200016821F001010160016821F00401F2
:10308000016040F24040C4F2422001210160002171
:10309000016080BDA0B140F27011C2F200010A6867
:1030A000013282420A6018BF704740F29010C4F2A9
:1030B00021200268D243026000200860704700BFF0
:1030C00040F29010C4F221200021016070470000FE
:1030D000B0B584B040F2F45042F20041C2F20000B8
:1030E000C4F2010100244FF460220125C261C0E94D
:1030F0000014C0E90244C0E90454FDF7F7FE0028BB
:1031000018BFFDF7E7FD40F2F450C2F2000001A93C
:10311000CDE901550394FDF727FE002818BFFDF700
:10312000D9FD04B0B0BD00002DE9F04786B04FF0E6
:10313000000A41F21800CDE904AACDE902AAC4F2BE
:103140000200016840F6000841F0100101600168CA
:10315000C4F2010801F010010191019901680022F7
:1031600041F020010160016801F020010191019905
:10317000016841F004010160016801F0040101915E
:103180000199016841F008010160006848F21801E6
:1031900000F00800019001984046FEF775FA08F526
:1031A0008064204647F238010022FEF76DFA4FF4A2
:1031B000604002AECDE9020A012508F50060314603
:1031C0000495FEF75BF9182002A981E821044FF06D
:1031D000030940463146CDF81490FEF74FF96020C0
:1031E000CDE9020A404631460495FEF747F94FF40F
:1031F000E04002A981E8210420463146CDF8149030
:10320000FEF73CF94FF4004720463146CDE9027AFB
:103210000495FEF733F9CDE90275022740463146A1
:10322000CDF810A00597FEF729F9382002A981E80A
:103230002104204631460597FEF720F906B0BDE887
:10324000F087000080B586B040F224600021C2F211
:1032500000004FF0630C0591CDE90311CDE9001199
:103260004FF0804241F61F43C0E9021C01618021FA
:10327000C0E900238161FEF7C5FE002818BFFDF7F5
:1032800029FD4FF48050029040F22460C2F2000009
:1032900002A9FEF75BFF002818BFFDF71BFD40F2F7
:1032A0002460C2F200006946FEF78AFE002818BFBB
:1032B000FDF710FD06B080BDB0B594B040F6000536
:1032C00040F26460C4F200050021C2F200008F22C7
:1032D00042F20F730E91CDE90C110991CDE907115E
:1032E000CDE90511CDE90311CDE90111C0E9005285
:1032F000C0E9021301618161FEF784FE002818BF56
:10330000FDF7E8FC4FF480500B9040F26460C2F28D
:1033100000000BA9FEF71AFF002818BFFDF7DAFC22
:1033200040F26460C2F20000FFF7BCF9002818BF49
:10333000FDF7D0FC40F264600024C2F2000008A94E
:10334000CDE90844FEF73CFE002818BFFDF7C2FC9B
:103350006020CDE9010440F26460C2F2000001A9DE
:10336000082203940594FFF79DF8002818BFFDF785
:10337000B1FC40F26464C2F2000401A920460C22B0
:10338000FFF790F8002818BFFDF7A4FC2168002083
:10339000A942CDE912001190109001D014B0B0BD37
:1033A00041F21800C4F20200016841F00801016016
:1033B000006810A900F008000F900F984FF44070BB
:1033C000109002201190139005F58230FEF756F808
:1033D00014B0B0BD10B540F2A804C2F2000443F628
:1033E0000001C4F20101204640F81C1F4FF4E131F6
:1033F00000220C23C0E90112C0E90322C0E9053212
:10340000C261FFF7B1FC002818BFFDF763FC04F1AF
:103410001C0021460122BDE81040FFF749BD000015
:1034200080B540F2A46044F60001C2F20000C4F28C
:10343000000100234FF00C0C4FF4E13280E80E0045
:10344000C0E90333C0E905C3C361FFF78DFC002861
:1034500018BFFDF73FFC40F2A800C2F20000411C7B
:1034600040F2A460C2F200000122BDE88040FFF7F4
:103470001FBD0000FEE70000FEE700004FF6004021
:10348000CFF6FF7040F2781CC2F2000C0022034617
:103490000CEB030113F5807381F8002481F80824F4
:1034A00081F8102481F8182481F8202481F8282438
:1034B00081F8302481F8382481F8402481F84824A8
:1034C00081F8502481F8582481F8602481F8682418
:1034D00081F8702481F8782481F8802481F8882488
:1034E00081F8902481F8982481F8A02481F8A824F8
:1034F00081F8B02481F8B82481F8C02481F8C82468
:1035000081F8D02481F8D82481F8E02481F8E824D7
:1035100081F8F02481F8F824BAD10022034600BFD4
:103520000CEB030113F5807381F8012481F8092461
:1035300081F8112481F8192481F8212481F82924A3
:1035400081F8312481F8392481F8412481F8492413
:1035500081F8512481F8592481F8612481F8692483
:1035600081F8712481F8792481F8812481F88924F3
:1035700081F8912481F8992481F8A12481F8A92463
:1035800081F8B12481F8B92481F8C12481F8C924D3
:1035900081F8D12481F8D92481F8E12481F8E92443
:1035A00081F8F12481F8F924BAD10022034600BF42
:1035B0000CEB030113F5807381F8022481F80A24CF
:1035C00081F8122481F81A2481F8222481F82A240F
:1035D00081F8322481F83A2481F8422481F84A247F
:1035E00081F8522481F85A2481F8622481F86A24EF
:1035F00081F8722481F87A2481F8822481F88A245F
:1036000081F8922481F89A2481F8A22481F8AA24CE
:1036100081F8B22481F8BA2481F8C22481F8CA243E
:1036200081F8D22481F8DA2481F8E22481F8EA24AE
:1036300081F8F22481F8FA24BAD10022034600BFAF
:103640000CEB030113F5807381F8032481F80B243C
:1036500081F8132481F81B2481F8232481F82B247A
:1036600081F8332481F83B2481F8432481F84B24EA
:1036700081F8532481F85B2481F8632481F86B245A
:1036800081F8732481F87B2481F8832481F88B24CA
:1036900081F8932481F89B2481F8A32481F8AB243A
:1036A00081F8B32481F8BB2481F8C32481F8CB24AA
:1036B00081F8D32481F8DB2481F8E32481F8EB241A
:1036C00081F8F32481F8FB24BAD10022034600BF1D
:1036D0000CEB030113F5807381F8042481F80C24AA
:1036E00081F8142481F81C2481F8242481F82C24E6
:1036F00081F8342481F83C2481F8442481F84C2456
:1037000081F8542481F85C2481F8642481F86C24C5
:1037100081F8742481F87C2481F8842481F88C2435
:1037200081F8942481F89C2481F8A42481F8AC24A5
:1037300081F8B42481F8BC2481F8C42481F8CC2415
:1037400081F8D42481F8DC2481F8E42481F8EC2485
:1037500081F8F42481F8FC24BAD10022034600BF8A
:103760000CEB030113F5807381F8052481F80D2417
:1037700081F8152481F81D2481F8252481F82D2451
:1037800081F8352481F83D2481F8452481F84D24C1
:1037900081F8552481F85D2481F8652481F86D2431
:1037A00081F8752481F87D2481F8852481F88D24A1
:1037B00081F8952481F89D2481F8A52481F8AD2411
:1037C00081F8B52481F8BD2481F8C52481F8CD2481
:1037D00081F8D52481F8DD2481F8E52481F8ED24F1
:1037E00081F8F52481F8FD24BAD10022034600BFF8
:1037F0000CEB030113F5807381F8062481F80E2485
:1038000081F8162481F81E2481F8262481F82E24BC
:1038100081F8362481F83E2481F8462481F84E242C
:1038200081F8562481F85E2481F8662481F86E249C
:1038300081F8762481F87E2481F8862481F88E240C
:1038400081F8962481F89E2481F8A62481F8AE247C
:1038500081F8B62481F8BE2481F8C62481F8CE24EC
:1038600081F8D62481F8DE2481F8E62481F8EE245C
:1038700081F8F62481F8FE24BAD100220CEB000175
:1038800010F5807081F8072481F80F2481F817243F
:1038900081F81F2481F8272481F82F2481F8372408
:1038A00081F83F2481F8472481F84F2481F8572478
:1038B00081F85F2481F8672481F86F2481F87724E8
:1038C00081F87F2481F8872481F88F2481F8972458
:1038D00081F89F2481F8A72481F8AF2481F8B724C8
:1038E00081F8BF2481F8C72481F8CF2481F8D72438
:1038F00081F8DF2481F8E72481F8EF2481F8F724A8
:1039000081F8FF24BAD100F0B9BD0000F0B581B054
:103910004FF60044CFF6FF74FDF76EFF41F2200032
:10392000C4F202000168012621F001010160016872
:10393000002521F00401016040F24040C4F2422021
:1039400006600560FDF752FF48F29417C4F2212784
:10395000642047F8085C01F0BBFF40F2BC10C4F2E1
:10396000212047F8086C05603D6047F8046C3E6014
:103970003D6047F8045C3E603D6047F8046C3E6083
:103980003D6047F8045C3E603D6047F8046C3E6073
:103990003D6047F8046C3E603D6047F8046C3E6053
:1039A0003D6047F8045C3E60066005603D6047F896
:1039B000046C3E603D6047F8046C3E603D6047F833
:1039C000045C3E603D6047F8046C3E603D6047F833
:1039D000045C3E603D6047F8046C3E603D6047F823
:1039E000045C3E603D6047F8046C3E600660056024
:1039F0003D6047F8045C3E603D6047F8046C3E6003
:103A00003D6047F8045C3E603D6047F8046C3E60F2
:103A10003D6047F8045C3E603D6047F8045C3E60F2
:103A20003D6047F8045C3E603D6047F8045C3E60E2
:103A3000066005603D6047F8046C3E603D6047F8F5
:103A4000045C3E603D6047F8046C3E603D6047F8B2
:103A5000045C3E603D6047F8046C3E603D6047F8A2
:103A6000045C3E603D6047F8045C3E603D6047F8A2
:103A7000045C3E60066005603D6047F8045C3E60A3
:103A80003D6047F8045C3E603D6047F8046C3E6072
:103A90003D6047F8046C3E603D6047F8046C3E6052
:103AA0003D6047F8046C3E603D6047F8046C3E6042
:103AB0003D6047F8046C3E60066005603D6047F875
:103AC000046C3E603D6047F8046C3E603D6047F822
:103AD000045C3E603D6047F8046C3E603D6047F822
:103AE000045C3E603D6047F8045C3E603D6047F822
:103AF000046C3E603D6047F8046C3E600660056003
:103B00003D6047F8045C3E603D6047F8045C3E6001
:103B10003D6047F8045C3E603D6047F8045C3E60F1
:103B20003D6047F8045C3E603D6047F8045C3E60E1
:103B30003D6047F8045C3E603D6047F8045C3E60D1
:103B4000066005603D6047F8045C3E603D6047F8F4
:103B5000046C3E603D6047F8045C3E603D6047F8A1
:103B6000045C3E603D6047F8045C3E603D6047F8A1
:103B7000045C3E603D6047F8045C3E603D6047F891
:103B8000045C3E60066005603D6047F8046C3E6082
:103B90003D6047F8045C3E603D6047F8045C3E6071
:103BA0003D6047F8045C3E603D6047F8046C3E6051
:103BB0003D6047F8046C3E603D6047F8045C3E6041
:103BC0003D6047F8046C3E60066005603D6047F864
:103BD000045C3E603D6047F8045C3E603D6047F831
:103BE000045C3E603D6047F8046C3E603D6047F811
:103BF000045C3E603D6047F8046C3E603D6047F801
:103C0000045C3E603D6047F8045C3E600660056011
:103C10003D6047F8045C3E603D6047F8045C3E60F0
:103C20003D6047F8046C3E603D6047F8045C3E60D0
:103C30003D6047F8045C3E603D6047F8045C3E60D0
:103C40003D6047F8045C3E603D6047F8045C3E60C0
:103C5000066005603D6047F8045C3E603D6047F8E3
:103C6000045C3E603D6047F8045C3E603D6047F8A0
:103C7000045C3E603D6047F8045C3E603D6047F890
:103C8000045C3E603D6047F8046C3E603D6047F870
:103C9000045C3E60066005603D6047F8046C3E6071
:103CA0003D6047F8045C3E603D6047F8046C3E6050
:103CB0003D6047F8045C3E603D6047F8045C3E6050
:103CC0003D6047F8045C3E603D6047F8045C3E6040
:103CD0003D6047F8046C3E60066005603D6047F853
:103CE000046C3E603D6047F8046C3E603D6047F800
:103CF000045C3E603D6047F8045C3E603D6047F810
:103D0000045C3E603D6047F8045C3E603D6047F8FF
:103D1000045C3E603D6047F8045C3E600660056000
:103D20003D6047F8046C3E603D6047F8046C3E60BF
:103D30003D6047F8045C3E603D6047F8046C3E60BF
:103D40003D6047F8046C3E603D6047F8045C3E60AF
:103D50003D6047F8046C3E603D6047F8045C3E609F
:103D6000066005603D6047F8045C3E603D6047F8D2
:103D7000045C3E603D6047F8045C3E603D6047F88F
:103D8000046C3E603D6047F8045C3E603D6047F86F
:103D9000045C3E603D6047F8046C3E603D6047F85F
:103DA000045C3E60066005603D6047F8046C3E6060
:103DB0003D6047F8045C3E603D6047F8045C3E604F
:103DC0003D6047F8045C3E603D6047F8045C3E603F
:103DD0003D6047F8045C3E603D6047F8045C3E602F
:103DE0003D6047F8046C3E60066005603D6047F842
:103DF000046C3E603D6047F8046C3E603D6047F8EF
:103E0000046C3E603D6047F8045C3E603D6047F8EE
:103E1000046C3E603D6047F8046C3E603D6047F8CE
:103E2000046C3E603D6047F8046C3E6006600560CF
:103E30003D6047F8046C3E603D6047F8046C3E60AE
:103E40003D6047F8045C3E603D6047F8046C3E60AE
:103E50003D6047F8046C3E603D6047F8045C3E609E
:103E60003D6047F8045C3E603D6047F8046C3E608E
:103E7000066005603D6047F8046C3E603D6047F8B1
:103E8000046C3E603D6047F8046C3E603D6047F85E
:103E9000046C3E603D6047F8045C3E603D6047F85E
:103EA000045C3E603D6047F8045C3E603D6047F85E
:103EB000046C3E60066005603D6047F8046C3E603F
:103EC0003D6047F8046C3E603D6047F8045C3E602E
:103ED0003D6047F8046C3E603D6047F8046C3E600E
:103EE0003D6047F8045C3E603D6047F8046C3E600E
:103EF0003D6047F8046C3E60066005603D6047F831
:103F0000045C3E603D6047F8045C3E603D6047F8FD
:103F1000046C3E603D6047F8046C3E603D6047F8CD
:103F2000045C3E603D6047F8045C3E603D6047F8DD
:103F3000045C3E603D6047F8045C3E6006600560DE
:103F40003D6047F8046C3E603D6047F8045C3E60AD
:103F50003D6047F8046C3E603D6047F8045C3E609D
:103F60003D6047F8045C3E603D6047F8046C3E608D
:103F70003D6047F8045C3E603D6047F8045C3E608D
:103F8000066005603D6047F8046C3E603D6047F8A0
:103F9000045C3E603D6047F8046C3E603D6047F85D
:103FA000045C3E603D6047F8045C3E603D6047F85D
:103FB000046C3E603D6047F8046C3E603D6047F82D
:103FC000045C3E60066005603D6047F8046C3E603E
:103FD0003D6047F8045C3E603D6047F8046C3E601D
:103FE0003D6047F8045C3E603D6047F8046C3E600D
:103FF0003D6047F8046C3E603D6047F8046C3E60ED
:104000003D6047F8046C3E60066040F27810C2F2F2
:1040100000002146421811F5807182F8005482F8A0
:10402000085482F8105482F8185482F8205482F808
:10403000285482F8305482F8385482F8405482F878
:10404000485482F8505482F8585482F8605482F8E8
:10405000685482F8705482F8785482F8805482F858
:10406000885482F8905482F8985482F8A05482F8C8
:10407000A85482F8B05482F8B85482F8C05482F838
:10408000C85482F8D05482F8D85482F8E05482F8A8
:10409000E85482F8F05482F8F854BBD1002122464B
:1040A000831812F5807283F8011483F8091483F8D9
:1040B000111483F8191483F8211483F8291483F850
:1040C000311483F8391483F8411483F8491483F8C0
:1040D000511483F8591483F8611483F8691483F830
:1040E000711483F8791483F8811483F8891483F8A0
:1040F000911483F8991483F8A11483F8A91483F810
:10410000B11483F8B91483F8C11483F8C91483F87F
:10411000D11483F8D91483F8E11483F8E91483F8EF
:10412000F11483F8F914BBD100212246831812F54B
:10413000807283F8021483F80A1483F8121483F847
:104140001A1483F8221483F82A1483F8321483F89B
:104150003A1483F8421483F84A1483F8521483F80B
:104160005A1483F8621483F86A1483F8721483F87B
:104170007A1483F8821483F88A1483F8921483F8EB
:104180009A1483F8A21483F8AA1483F8B21483F85B
:10419000BA1483F8C21483F8CA1483F8D21483F8CB
:1041A000DA1483F8E21483F8EA1483F8F21483F83B
:1041B000FA14BBD100212246831812F5807283F8CD
:1041C000031483F80B1483F8131483F81B1483F877
:1041D000231483F82B1483F8331483F83B1483F8E7
:1041E000431483F84B1483F8531483F85B1483F857
:1041F000631483F86B1483F8731483F87B1483F8C7
:10420000831483F88B1483F8931483F89B1483F836
:10421000A31483F8AB1483F8B31483F8BB1483F8A6
:10422000C31483F8CB1483F8D31483F8DB1483F816
:10423000E31483F8EB1483F8F31483F8FB14BBD175
:1042400000212246831812F5807283F8041483F843
:104250000C1483F8141483F81C1483F8241483F8C2
:104260002C1483F8341483F83C1483F8441483F832
:104270004C1483F8541483F85C1483F8641483F8A2
:104280006C1483F8741483F87C1483F8841483F812
:104290008C1483F8941483F89C1483F8A41483F882
:1042A000AC1483F8B41483F8BC1483F8C41483F8F2
:1042B000CC1483F8D41483F8DC1483F8E41483F862
:1042C000EC1483F8F41483F8FC14BBD100212246CB
:1042D000831812F5807283F8051483F80D1483F89F
:1042E000151483F81D1483F8251483F82D1483F80E
:1042F000351483F83D1483F8451483F84D1483F87E
:10430000551483F85D1483F8651483F86D1483F8ED
:10431000751483F87D1483F8851483F88D1483F85D
:10432000951483F89D1483F8A51483F8AD1483F8CD
:10433000B51483F8BD1483F8C51483F8CD1483F83D
:10434000D51483F8DD1483F8E51483F8ED1483F8AD
:10435000F51483F8FD14BBD100212246831812F511
:10436000807283F8061483F80E1483F8161483F809
:104370001E1483F8261483F82E1483F8361483F859
:104380003E1483F8461483F84E1483F8561483F8C9
:104390005E1483F8661483F86E1483F8761483F839
:1043A0007E1483F8861483F88E1483F8961483F8A9
:1043B0009E1483F8A61483F8AE1483F8B61483F819
:1043C000BE1483F8C61483F8CE1483F8D61483F889
:1043D000DE1483F8E61483F8EE1483F8F61483F8F9
:1043E000FE14BBD1002100BF021914F5807482F8BD
:1043F000071482F80F1482F8171482F81F1482F839
:10440000271482F82F1482F8371482F83F1482F8A8
:10441000471482F84F1482F8571482F85F1482F818
:10442000671482F86F1482F8771482F87F1482F888
:10443000871482F88F1482F8971482F89F1482F8F8
:10444000A71482F8AF1482F8B71482F8BF1482F868
:10445000C71482F8CF1482F8D71482F8DF1482F8D8
:10446000E71482F8EF1482F8F71482F8FF14BBD136
:1044700001B0BDE8F04000F001B80000F0B548F22E
:10448000941040F2781C40F2BC13C4F221200021A9
:10449000C2F2000CC4F2212301224FF0000E00BF33
:1044A000CEF385041960016040F8042C02600160BD
:1044B00040F8041C0260016040F8042C02600160B6
:1044C00040F8042C0260016040F8041C02600160A6
:1044D00040F8044CCEF340040260016040F8044C04
:1044E0000EF001040260016040F8044C6FF00F040C
:1044F00002601A601960016040F8041C02600160EB
:1045000040F8041C0260016040F8041C0260016075
:1045100040F8041C0260016040F8041C0260016065
:1045200040F8041C0260016040F8041C0260016055
:1045300040F8041C02601A601960016040F8041C15
:104540000260016040F8041C0260016040F8041C35
:104550000260016040F8042C0260016040F8041C15
:104560000260016040F8041C0260016040F8041C15
:104570000260016040F8041C02601A600CEB040544
:104580002E7C1A60F709016040F8047CC6F380179E
:104590000260016040F8047CC6F3401702600160CD
:1045A00040F8047CC6F300170260016040F8047C08
:1045B000C6F3C0070260016040F8047CC6F38007C0
:1045C0000260016040F8047CC6F3400706F0010673
:1045D0000260016040F8047C0260016040F8046CF5
:1045E00002601A602D7E1A60EE09016040F8046CCA
:1045F000C5F380160260016040F8046CC5F34016F4
:104600000260016040F8046CC5F3001602600160AE
:1046100040F8046CC5F3C0060260016040F8046C09
:10462000C5F3800610340260016040F8046CC5F3E5
:10463000400605F00105B4F57C7F0260016040F89A
:10464000046C0260016040F8045C02601A6095D15D
:104650000EF1010EBEF1080F0CF1010C08BFF0BD08
:104660001EE70000002B08BF70472DE9F04F83B014
:10467000203AD7B247F65222C0F600024FF0000CA3
:1046800002EB07124FF0070E4FF0010B0C4601979B
:10469000009207E002980C4601300CF1010C9C4599
:1046A00000F0B68042B2002A029000F17F80C2B2D0
:1046B00001980C2B00EB400547F2DE50C0F60000DD
:1046C00000EB850500984FF0000700EB0C0640F268
:1046D000781008BF05EB0C063578C2F2000000EB3D
:1046E000C20800BF6AB2B2F1FF3FE6B20EDD3F2E54
:1046F0001CD80C9A2EEA04008EEAD606002A0BFA81
:1047000000F20ED018F8060090430DE03F2E0DD8B1
:104710000C982EEA04028EEAD60600280BFA02F262
:10472000F0D018F80600104308F8060004F101095B
:104730005FFA89FAAAEB01009842ABD068060FD461
:10474000BAF13F0F1DD80C9A2EEA09008EEADA065C
:10475000002A0BFA00F20FD018F8060090430EE082
:10476000BAF13F0F0DD80C9A2EEA09008EEADA064C
:10477000002A0BFA00F2EFD018F80600104308F8F0
:1047800006000234E0B2401A98423FF483AF47F08B
:104790000100AD00072807F10207A3D302980CF12E
:1047A000010C9C457FF47EAF32E000BF621CD2B2A8
:1047B000521A9A423FF46EAFA21CD2B2521A9A42D7
:1047C0003FF468AFE21CD2B2521A9A423FF462AF91
:1047D000221DD2B2521A9A423FF45CAF621DD2B28D
:1047E000521A9A423FF456AFA21DD2B2521A9A42BE
:1047F0003FF450AFE21DD2B2521A9A423FF44AAF90
:104800000834E2B2521A9A423FF444AFC6E700BFFE
:1048100003B0BDE8F04F70472DE9F04F87B00F4669
:10482000002B1946069300F080809346109C069A50
:104830000546501E61080591911E4FF00008039037
:10484000C0B242F210794FF0000A0291049013E0D6
:104850004FF0010A059940F0300201FB0851D2B235
:10486000C8B23946234601260096FFF7FBFE06989C
:1048700008F10108804558D004995FFA88F0814218
:1048800002D101202AE000BF02996FEA0800A1EBE3
:104890000801C9B203290699014401D2012009E0A7
:1048A00001F0FC02002301200433DEB2964200FB3B
:1048B00009F0F9D111F0030110D0012904D100EB66
:1048C000800040000AE000BF4FF47A7242430229A0
:1048D0004FF0640108BF00FB01F21046BBFBF0F093
:1048E0004CF6CD41CCF6CC41A0FB0112D10801EB36
:1048F0008101BAF1000FA0EB4100ABD10399414512
:10490000A8DD0028A4D10598394600FB08502022D4
:10491000C0B2234601260096FFF7A4FE4FF0000A1E
:10492000069808F101088045A6D107B0BDE8F08FD0
:104930002DE9F04782B091461278002A00F05C829F
:104940004FF6004840F278170E460546CFF6FF783E
:10495000C2F2000700244FF0010A0DE0E8B2F1B204
:10496000D2B20C23CDF800A0FFF77CFE19F8012F7E
:104970000835002A00F04082E8B27A2884BF00257A
:104980001036F0B23B28E9D3404600BF391810F585
:10499000807081F8004481F8084481F8104481F85F
:1049A000184481F8204481F8284481F8304481F883
:1049B000384481F8404481F8484481F8504481F8F3
:1049C000584481F8604481F8684481F8704481F863
:1049D000784481F8804481F8884481F8904481F8D3
:1049E000984481F8A04481F8A84481F8B04481F843
:1049F000B84481F8C04481F8C84481F8D04481F8B3
:104A0000D84481F8E04481F8E84481F8F04481F822
:104A1000F844BBD1404600BF391810F5807081F8CA
:104A2000014481F8094481F8114481F8194481F85E
:104A3000214481F8294481F8314481F8394481F8CE
:104A4000414481F8494481F8514481F8594481F83E
:104A5000614481F8694481F8714481F8794481F8AE
:104A6000814481F8894481F8914481F8994481F81E
:104A7000A14481F8A94481F8B14481F8B94481F88E
:104A8000C14481F8C94481F8D14481F8D94481F8FE
:104A9000E14481F8E94481F8F14481F8F944BBD15B
:104AA000404600BF391810F5807081F8024481F843
:104AB0000A4481F8124481F81A4481F8224481F8AA
:104AC0002A4481F8324481F83A4481F8424481F81A
:104AD0004A4481F8524481F85A4481F8624481F88A
:104AE0006A4481F8724481F87A4481F8824481F8FA
:104AF0008A4481F8924481F89A4481F8A24481F86A
:104B0000AA4481F8B24481F8BA4481F8C24481F8D9
:104B1000CA4481F8D24481F8DA4481F8E24481F849
:104B2000EA4481F8F24481F8FA44BBD1404600BF20
:104B3000391810F5807081F8034481F80B4481F82E
:104B4000134481F81B4481F8234481F82B4481F8F5
:104B5000334481F83B4481F8434481F84B4481F865
:104B6000534481F85B4481F8634481F86B4481F8D5
:104B7000734481F87B4481F8834481F88B4481F845
:104B8000934481F89B4481F8A34481F8AB4481F8B5
:104B9000B34481F8BB4481F8C34481F8CB4481F825
:104BA000D34481F8DB4481F8E34481F8EB4481F895
:104BB000F34481F8FB44BBD1404600BF391810F5DF
:104BC000807081F8044481F80C4481F8144481F821
:104BD0001C4481F8244481F82C4481F8344481F841
:104BE0003C4481F8444481F84C4481F8544481F8B1
:104BF0005C4481F8644481F86C4481F8744481F821
:104C00007C4481F8844481F88C4481F8944481F890
:104C10009C4481F8A44481F8AC4481F8B44481F800
:104C2000BC4481F8C44481F8CC4481F8D44481F870
:104C3000DC4481F8E44481F8EC4481F8F44481F8E0
:104C4000FC44BBD1404600BF391810F5807081F894
:104C5000054481F80D4481F8154481F81D4481F81C
:104C6000254481F82D4481F8354481F83D4481F88C
:104C7000454481F84D4481F8554481F85D4481F8FC
:104C8000654481F86D4481F8754481F87D4481F86C
:104C9000854481F88D4481F8954481F89D4481F8DC
:104CA000A54481F8AD4481F8B54481F8BD4481F84C
:104CB000C54481F8CD4481F8D54481F8DD4481F8BC
:104CC000E54481F8ED4481F8F54481F8FD44BBD119
:104CD000404600BF391810F5807081F8064481F80D
:104CE0000E4481F8164481F81E4481F8264481F868
:104CF0002E4481F8364481F83E4481F8464481F8D8
:104D00004E4481F8564481F85E4481F8664481F847
:104D10006E4481F8764481F87E4481F8864481F8B7
:104D20008E4481F8964481F89E4481F8A64481F827
:104D3000AE4481F8B64481F8BE4481F8C64481F897
:104D4000CE4481F8D64481F8DE4481F8E64481F807
:104D5000EE4481F8F64481F8FE44BBD1404600BFE2
:104D6000391810F5807081F8074481F80F4481F8F4
:104D7000174481F81F4481F8274481F82F4481F8B3
:104D8000374481F83F4481F8474481F84F4481F823
:104D9000574481F85F4481F8674481F86F4481F893
:104DA000774481F87F4481F8874481F88F4481F803
:104DB000974481F89F4481F8A74481F8AF4481F873
:104DC000B74481F8BF4481F8C74481F8CF4481F8E3
:104DD000D74481F8DF4481F8E74481F8EF4481F853
:104DE000F74481F8FF44BBD1FFF748FB99F8002056
:104DF00000250026B2E500BF02B0BDE8F087000044
:104E00002DE9F04F81B0FCF745FC40F27857C2F233
:104E100000073968002941D040F25411EFF31086A1
:104E200072B6C2F200010B784A7889780025002E0C
:104E30003D6063D0022B64D340F28C50C2F200007C
:104E40000021016040F29050C2F20000016040F287
:104E50002C00C2F20000006840F20002C2F2000220
:104E6000106040F23000C2F20000006840F204021C
:104E7000C2F20002106040F22010C2F200000122D3
:104E8000827040F201120280C0E90211C0E90411EF
:104E9000C0E90611016201B0BDE8F08F40F28C520A
:104EA000C2F200020021116040F29052C2F20002F0
:104EB000116040F22C02C2F20002126840F20003BC
:104EC000C2F200031A6040F23002C2F2000212681D
:104ED00040F20403C2F200031A6040F22012C2F250
:104EE000000213690127977043B3C01AB0F5967F8B
:104EF00024D80020507001B0BDE8F08F62B6022BBC
:104F00009AD240F22018C2F20008C8F81000C8F87F
:104F100004000020012B88F801001BD1B2F18000B1
:104F2000A1F18005014648BF4142002D2E4648BFF1
:104F30006E4206293AD200244CE000BF40F2011034
:104F40001080C2E90211C2E90511C2E9071101B0DE
:104F5000BDE8F08F40F28C51C2F20001086040F2CF
:104F60009051C2F20001086040F22C01C2F200012F
:104F7000096840F20002C2F20002116040F2300102
:104F8000C2F20001096840F20402C2F2000211609C
:104F9000012188F8021088F80010C8E90200C8E969
:104FA0000500C8E9070001B0BDE8F08F0E290FD851
:104FB00005390746084602F0EFF80021C4F2201137
:104FC00001F0B8FF014602F067F90446384601E0F7
:104FD0004FF07E5402F0E0F80021C4F27F3101F07E
:104FE000A9FF214602F058F9062E074602D20024F6
:104FF00012E000BF0E2E0DD8701F02F0CDF8002178
:10500000C4F2201101F096FF014602F045F9044672
:1050100002E000BF4FF07E54284602F0BDF80021A8
:10502000C4F27F3101F086FF214602F035F908F124
:10503000140B9BE8320881463846C8E9027902F031
:10504000F7F94CF6CD4AC3F6CC5A514601F072FF3F
:1050500046F266610646C3F66671284602F01CF900
:1050600005463046514602F017F9294601F0CAFEBE
:1050700005464846214602F0DBF9514601F05AFF49
:1050800046F2666104465846C3F66671BB4602F0B6
:1050900003F906462046514602F0FEF8314601F07B
:1050A000B1FE4CF6CD44C3F64C54C8E9075038461F
:1050B000214602F0F1F805464846214602F0ECF898
:1050C0000026C4F2FA3604462846314602F0E4F8D7
:1050D00002F026F805462046314602F0DDF802F0DF
:1050E0001FF86FF0F90615F1FA0FD8BF35460446E0
:1050F000FA27FA2DA8BF3D46284602F04DF814F1D4
:10510000FA0FC8BF26460546FA2EA8BF3E463046CF
:1051100002F042F80026CCF220160446284631461A
:1051200085F0004701F0F3FE00281CBF0027C4F201
:1051300020173846314601F0D5FE002840F28C5049
:10514000C2F2000008BF374607602046314684F0AF
:10515000004501F0DCFE00281CBF0025C4F220152C
:105160002846314601F0BEFE002808BF354640F211
:10517000905040F20006C2F20000C2F20006056044
:10518000356844F200040120C4F29C4488F802000F
:105190002846214601F0A6FE10B134600AE000BFA7
:1051A0000024C4F27A342846214601F0A2FE0028E9
:1051B00008BF346040F20406C2F2000635680024DD
:1051C000C4F296442846214601F08CFE10B13460AA
:1051D0000AE000BF0024C4F296342846214601F0BC
:1051E00088FE002808BF34600020C8E905B988F8A7
:1051F000000001B0BDE8F08F40F21411C2F20001CE
:10520000084480787047000010B540F21414C2F2D0
:1052100000040020A072C4F80600C4F8020000F0E8
:1052200087F840F20A01C2F200010A88B4F80500CA
:10523000013A20FA02F2D20720805BD04A88013A74
:1052400020FA02F2D20757D08A88013A20FA02F2F5
:10525000D20753D0CA88013A20FA02F2D2074FD0BF
:105260000A89013A20FA02F2D2074BD04A89013A60
:1052700020FA02F2D20747D08A89013A20FA02F2D4
:10528000D20743D0CA89013A20FA02F2D2073FD0AE
:105290000A8A013A20FA02F2D2073BD04A8A013A3E
:1052A00020FA02F2D20737D08A8A013A20FA02F2B3
:1052B000D20733D0CA8A013A20FA02F2D2072FD09D
:1052C0000A8B013A20FA02F2D2072BD04A8B013A1C
:1052D00020FA02F2D20727D08A8B013A20FA02F292
:1052E000D20723D0C98B0139C840012121EA00002F
:1052F000000110BD012010BD022010BD032010BD13
:10530000042010BD052010BD062010BD072010BDD3
:10531000082010BD092010BD0A2010BD0B2010BDB3
:105320000C2010BD0D2010BD0E2010BD0F2010BD93
:105330002DE9F04383B048F2B014C4F221244FF0B9
:105340000009012740F2080840F214158DF8079073
:10535000ADF80470C4F80490C2F20008C2F200056F
:1053600098F80060ADF8087085F80390ADF8087003
:10537000BDF80800FF281DD9102000F0DBFA98F8CE
:105380000160ADF80A7085F80390ADF80A70BDF8B9
:105390000A00FF284CD801274FF000082EE000BF7C
:1053A000BDF808004000ADF80800BDF80800B0F5F1
:1053B000807FE1D2BDF80800304018BF0120A06016
:1053C0000520276000F0B6FA0520C4F8009000F030
:1053D000B1FA276054F8740C0028E1D0BDF8080039
:1053E000E9780843E870DBE7BDF80A004000ADF853
:1053F0000A00BDF80A00B0F5807F19D2BDF80A0096
:10540000304018BF0120A0600520276000F092FA0C
:105410000520C4F8008000F08DFA276054F8740C61
:105420000028E1D0BDF80A00E9780843E870DBE71E
:10543000102000F07FFA02208DF807009DF8070089
:10544000082839D80126002702350BE0102000F08B
:1054500071FA9DF8070001308DF807009DF80700EC
:10546000092829D2ADF80460BDF80400FF280BD943
:10547000ECE700BFBDF804004000ADF80400BDF843
:105480000400B0F5807FE1D20520266000F052FADA
:105490000520276000F04EFA266054F8740C0028AE
:1054A000E8D0BDF804009DF80710695C9DF807205E
:1054B0000843A854DEE700BF0120606003B0BDE8E8
:1054C000F0830000704700002DE9F04381B01546DD
:1054D00002460846114601F0ABFF044601F020FEEB
:1054E00040F22011C2F20001002801EB850948BFFB
:1054F0004042332809F1240702D300253D6016E01D
:105500003968204601F07EFC0026C4F27A46314616
:105510000546386001F0F4FC38B10026CCF27A463A
:105520002846314601F0E5FC08B935463E6040F2B8
:105530003800C2F200000168204601F0ADFE40F2E2
:105540000008C4F2C828414601F0F4FC40F288513A
:10555000C2F20001096807460846294601F09CFE90
:10556000414601F0E7FC40F23401C2F200010D684F
:10557000D9F82C100646204601F05AFF014628466D
:1055800001F08AFE414601F0D5FC05463846314619
:1055900001F038FC294601F035FCC9F82C4001B077
:1055A000BDE8F08370470000FCF77AB87047000050
:1055B00040F22460C2F20000FCF7BABE406A00214B
:1055C000C185C184FDF756BA2DE9F04F81B004467C
:1055D000006804F108030ECB0769194327F440570C
:1055E0003A430261626941F20C631143C26848F2B6
:1055F0001F5B9A431143C1604169A26921F4407164
:105600001143416143F60001C4F201018842C5F231
:10561000EB1B3FD0FCF7C4FA616819277843890077
:10562000B0FBF1F0A0FB0B016FF00F0000EA510698
:10563000FCF7B6FA616878438900B0FBF1F5FCF736
:10564000AFFA616878438900B0FBF1F04FF064086D
:10565000A0FB0B01480900FB1850322101EB0010A0
:10566000A0FB0B01F02000EA51100644FCF798FA69
:10567000616878438900B0FBF1F5FCF791FA616845
:1056800078438900B0FBF1F0A0FB0B01480900FB57
:10569000185045E0FCF798FA61684FF0190A00FBD2
:1056A0000AF08900B0FBF1F0A0FB0B016FF00F00D6
:1056B00000EA5109FCF788FA616800FB0AF08900EA
:1056C000B0FBF1F6FCF780FA616800FB0AF0890094
:1056D000B0FBF1F04FF06408A0FB0B01480900FBA0
:1056E0001860322101EB0010A0FB0B01F02000EA52
:1056F000511000EB0906FCF767FA616800FB0AF03D
:105700008900B0FBF1F7FCF75FFA616800FB0AF073
:105710008900B0FBF1F0A0FB0B01480900FB1870F9
:10572000322101EB0010A0FB0B01C1F343102168F3
:105730003043886001B0BDE8F08F000040F2C40043
:10574000C2F20000FDF7DCB940F2A460C2F2000032
:10575000FDF7D6B9FEE7000040F28451C2F2000125
:105760000868002808BF7047B0B540F27C53EFF3DB
:10577000108272B6C2F2000318785D789C78DC78EB
:105780001C795C799C79DB7900230B6002B962B6E5
:1057900098B14FF47A71484301F0FEFC0021C4F245
:1057A000873101F0C7FB0021C4F27A3101F02AFBF6
:1057B00040F20001C2F2000108609DB14FF47A701E
:1057C000684301F0E9FC0021C4F2343101F0B2FB7E
:1057D0000021C4F27A3101F015FB40F20401C2F25B
:1057E00000010860BDE8B04070470000FEE700001F
:1057F00080B540F2141CC4F2212CDCF8003040F2D9
:10580000081EC2F2000E0022BEF80810002B08BFCE
:105810004A1CAEF80820DCF800109EF80030002981
:1058200008BF002B0AD09EF80110D9B963B99EF8C1
:105830000230D9B2022912D014E000BF9EF8011044
:1058400001238EF8003069B99EF802104B1C01212B
:105850008EF802308EF80110D9B2022902D102204E
:105860001FE000BFDCF80010012904BF0021AEF8E2
:1058700000109EF8021001291CBF002080BDBEF858
:10588000061092B201318BB28342AEF8061003D9F2
:10589000824201D2012004E082424FF0000098BF12
:1058A00080BD00218EF80210AEF8061080BD000009
:1058B0004EF21000CEF20000016821F004010160F8
:1058C00040F20410C2F200000121017081707047A3
:1058D00040F20411C2F200018A784EF21001CEF2B9
:1058E0000001002A18BF42F22832504348600020CD
:1058F0008860086840F00100086000BF086800F098
:10590000011001280ED1086800F00110012809D10A
:10591000086800F00110012804D1086800F00110A7
:105920000128EBD0086820F00100086000208860A2
:105930007047000040F20411C2F200010A784EF2F2
:105940001001CEF20001002A18BF0922504348601E
:1059500000208860086840F001000860086800F0D6
:10596000011001280ED1086800F00110012809D1AA
:10597000086800F00110012804D1086800F0011047
:105980000128EBD0086820F0010008600020886042
:105990007047000043F60001C4F201010A68520694
:1059A00009D40A6852065CBF0A685FEA426202D400
:1059B0000A685206F2D5C2B24A607047A0B0FBF73F
:1059C00077FE00240120CDE91B44CDE9194416904F
:1059D0001A904FF4E0104FF4803102251F9016A862
:1059E0001094CDE90E44CDE91714CDE91D51FCF713
:1059F000FFF818B172B600BFFEE700BF0F20CDE977
:105A000011054FF48060CDE9140411A8022113940C
:105A1000FBF7F6FF10B172B6FEE700BF02200D9053
:105A20004FF400400F900DA8FBF768FF10B172B65D
:105A3000FEE700BFFDF778FBFDF7CCFCFDF748FB68
:105A4000FDF73AFCFDF7FEFBFDF7EAFCFFF730FF40
:105A5000FDF75CFFFDF706FB40F26464C2F2000450
:105A600020460821FCF786FE20460C21FCF782FE2A
:105A700040F22460C2F20000FCF75CFB40F200053B
:105A800040F2000940F2000840F2541440F29456EB
:105A900040F2985BC2F20005C4F27A49C4F287383A
:105AA0000FF27C1AC2F20004C2F20006C2F2000B2E
:105AB00003E000BF0520FFF70BFF52A0FAF77AFCC6
:105AC00000272868CCF27A37394601F09BF949461D
:105AD00001F030FA414601F0DFFB01F067F90246C0
